:060000000A128A110C280F
:10000800FE00030EF0000A08F1000A128A113B2ACA
:100018000A128A110F28FA01FB0183120313AD019A
:10002800AE01AF01B001B101B201B301B401B50134
:10003800B601B701B80183010A128A11B329F90080
:100048006430F2000030F300790883120313A4002F
:10005800A5012408F4002508F5000A128A118E204B
:100068000A128A11720883120313A6002608FB00DD
:100078006430F2000030F3007908A400A5012408D8
:10008800F4002508F5000A128A115A210A128A1169
:10009800720883120313A6002608FA000A30F20039
:1000A8000030F3007A08A400A5012408F40025080C
:1000B800F5000A128A118E200A128A117208831218
:1000C8000313A6002608B4000A30F2000030F3003B
:1000D8007A08A400A5012408F4002508F5000A12EE
:1000E8008A115A210A128A11720883120313A60070
:1000F8002608B3007B08303EA4002408FB0034081F
:10010800303EA4002408B4003308303EA40024087C
:10011800B300080083120313A101F31F9428952844
:100128009C28F209F309F20A0319F30AA101A10AAA
:10013800F51F9F28A028A928F409F509F40A03192E
:10014800F50A0130F6007608A106A201A30172089B
:1001580073040319B028B128E828A001A00ABF2811
:1001680001300310F20DF30DFF3E031DB5280130D9
:10017800F6007608A007F31FC228C328B428013068
:100188000310A20DA30DFF3E031DC42873087502BA
:10019800031DD02872087402031CD328D428DB2836
:1001A8007208F4027308031CF503F50222140130E7
:1001B8000310F30CF20CFF3E031DDC280130A002F3
:1001C800031DE728E828C32821080319EC28ED288F
:1001D800F228A209A309A20A0319A30A2308F30013
:1001E8002208F2000800023083120313A9004530E8
:1001F800A800A930A700A70BFF28A80BFF28A90B68
:10020800FF28831203132F080A128A1123200A12C7
:100218008A116130831203131A06031D1429152944
:100228005929413083120313A800ED30A700A70B0A
:100238001B29A80B1B292029831203130C1E25290F
:10024800262928297B089900413083120313A80026
:10025800ED30A700A70B2E29A80B2E2933298312CE
:1002680003130C1E382939293B29340899004130D9
:1002780083120313A800ED30A700A70B4129A80B90
:1002880041294629831203130C1E4B294C294E2958
:1002980033089900413083120313A800ED30A700FA
:1002A800A70B5429A80B542959290800F801F51F50
:1002B8005E295F296629F409F509F40A0319F50A84
:1002C800F801F80AF31F69296A296F29F209F30965
:1002D800F20A0319F30A72087304031974297529B9
:1002E800A429F701F70A832901300310F20DF30D51
:1002F800FF3E031D79290130F6007608F707F31F42
:1003080086298729782973087502031D8D297208A3
:100318007402031C9029912997297208F402730822
:10032800031CF503F50201300310F30CF20CFF3E39
:10033800031D98290130F702031DA329A429872941
:1003480078080319A829A929AE29F409F509F40A96
:100358000319F50A7508F3007408F20008000A1278
:100368008A11FE210A128A11831203132F088500AD
:100378000A128A11F7200A128A11831203138C1E9B
:10038800C629C729C1291A08D03EAA002A08B800D8
:100398008C1ECF29D029CC291A08D03EAA002A08B9
:1003A800B7008C1ED829D929D5291A08D03EAA0009
:1003B8002A08B6000A30AA002A08F20037080A12EA
:1003C8008A1161220A128A1183120313AB00643066
:1003D800AC002C08F20038080A128A1161220A12AD
:1003E8008A11831203132B0736078800B8290A12CB
:1003F8008A110C28831603178801890183160313B1
:100408008501061486148801831203138501860169
:10041800870188018901831603130F128F160F179E
:100428000F1481130330950016149614181218151A
:1004380083160317871119308316031399000130A7
:100448009A008312031398171813181683160313A8
:1004580018139816831203138C120C128B170B1790
:10046800831603138C120C120B148B1508000B1C2B
:100478003E2A3F2A5A2A831203130618442A452A79
:100488004D2A2F08013EAF0030080318013E003EF8
:10049800B0008618502A512A592A2F08FF3EAF006B
:1004A80030080318013EFF3EB0000B1071088A00A7
:1004B800700E8300FE0E7E0E0900F500F401751C17
:1004C800662A672A6B2A7208F3007308F407031078
:1004D800F20D0310F50C7508031D732A742A632A9C
:1004E8007408080002308A000408840A820700346D
:0604F800253464340034D9
:04400E00D420FF3F7C
:00000001FF
